:10105D008F338C348D351212AD7FA01210341212D5
:10106D0077AF33121034121277AF351210341212CB
:04107D00770212B62E
:020FD8008F196F
:100FDA001212AD7FA0121034121277AF1912103408
:100FEA001212771212AD7FA1121034121277121058
:0D0FFA00C68F1A7F0112128F1212B6AF1AA5
:0110070022C6
:0512BD00007FF7DFFED9
:0112C2002209
:0410A400AD07AC06E2
:1010A800E4FBFAED25E0FFEC33FEC3EB9FEA9E502C
:0D10B8000CB2A51212BD0BBB00010A80E6B0
:0110C5002208
:10123200EF1FAC0670011E4C600A7D027CEFDCFEE3
:04124200DDFC80EC63
:011246002285
:0D126A001211027FCC1211917F44021191EC
:101008001211027FCC1211917FBE12119112113D63
:101018008F1912113DEFFEE519FFFDAC06EC120A1F
:0B10280035E4FBFA79807841120909D9
:01103300229A
:0912AD00D2A0D2A1C2A0C2A1226C
:0712B600C2A0D2A1D2A022C8
:02103400AD0706
:10103600E4FB74807E00A803088006CEA2E713CEE8
:1010460013D8F8FFEDF582EF558224FF92A0D2A1C6
:06105600C2A10BBB08DC87
:01105C002271
:1010C600E4FFD2A0FED2A130A00D7480A80608804D
:0D10D60002C313D8FC4207C2A10EBE08E8F9
:0110E30022EA
:0A128F00EF24FF92A0D2A1C2A12219
:0B127700D2A0D2A1A2A0E433FFC2A1CC
:011282002249
:0512C300E4AF38F5382E
:0112C8002203
:1011F000E4FF20B1010F20B0027F0220B2027F0382
:0512000020B3027F0491
:0112050022C6
:100EFB008536371211F08F36E537B40107E53670BA
:100F0B0003753801E537B40207E53670037538020F
:100F1B00E537B40307E5367003753803E537B404DA
:080F2B0007E536700375380478
:010F3300229B
:06125B00C2A58F80D2A79E
:081261007F027EEFDEFEDFFCE0
:011269002262
:0A129900C2A612125BC2A702126186
:1010E400CFCDCFCECCCE120B2E7C007D0A120B2E90
:0410F400ED2430FFB8
:0A10F800D2A612125BC2A702126119
:10120600AE07BE0104ED148006BE0209ED243F447C
:0612160080FF1212992274
:101247007F381212997F0C1212997F061212997F1A
:0412570001021299E5
:0A12A300AC03121206AF040210F8AB
:061081008B198A1A891B7D
:10108700121206E4FDAB19AA1AA91B8D82758300FB
:0C109700120AEFFF60061210F80D80E94D
:0110A300222A
:0C0FA5007F0AEA24FFFDE434FFFC7E001C
:080FB1008E1E8F1F8C208D2184
:100FB9007F017E00E4FBEBC39521E5206480F87492
:0E0FC9008098500AAC1EAD1F120B1C0B80E866
:010FD70022F7
:041120008A1B8B1C7F
:10112400121206AA1DEAD39400400D120FA5AC1B9F
:08113400AD1C1210E41A80ED5D
:01113C002290
:100EC100121206C3EA64809480400B7F2B1210F843
:100ED1008A278B28800E7F2D1210F8C3E49BF528FA
:100EE100E49AF527AA26EAD39400400D120FA5AC87
:090EF10027AD281210E41A80ED6F
:010EFA0022D5
:040F34008A2B8B2C4D
:100F3800121206AA2DEAD3940040297F10120FA797
:100F4800AC2BAD2CCFCDCFCECCCE120B2EEF540F79
:100F5800FEC3940AEE5004243080022437FF121096
:040F6800F81A80D122
:010F6C002262
:040F6D008A308B310A
:100F7100121206AA32EAD394004028EA24FFFDE4C3
:100F810034FFFC7F027E00120FB1AC30AD31CFCD0A
:100F9100CFCECCCE120B2EEF54012430FF1210F81D
:030FA1001A80D2E1
:010FA400222A
:1011AA00543A0054483A0053706565643A004F5601
:0811BA003A480020202020002B
:1011760075A0FF7FE87E03121232E4F5A07FF47EAD
:0B118600011212327FE87E030210A469
:03000B00020DC41F
:100DC400C0E0C0F0C083C082C0D075D000C000C0F5
:0D0DD40001C002C003C004C005C006C00776
:100DE100758A18758CFC0509E50970020508C3941C
:100DF10014E50894004009750800750900120EFBFE
:100E0100D007D006D005D004D003D002D001D00045
:0B0E1100D0D0D082D083D0F0D0E032EF
:03001B00020E7062
:100E7000C0E0C0F0C0D075D000C000C004C005C044
:030E800006C007A2
:100E8300758A9C758CFF050BE50B7002050AAE0A8B
:100E9300FF7C007D64120B2E8C0A8D0BC3E50B9532
:0D0EA3000CE50A94005004D2908002C29029
:100EB000D007D006D005D004D000D0D0D0F0D0E0FC
:010EC00032FF
:100D180012126A1210088F108E0F8D0E8C0DE4FFC0
:100D2800FEFDFCAB10AA0FA90EA80D1209A6501EB5
:100D38007B2D7D037F011212A3AF10AE0FAD0EAC59
:100D48000D120A1F8F188E178D168C1580157B2B88
:100D58007D037F011212A3851018850F17850E16C3
:100D6800850D15AF18AE17AD16AC15120A6EAB0788
:100D7800AA06751D037D047F011211207B2E7D07B5
:100D88007F011212A3E4FFFE7DC87C42AB18AA17AC
:100D9800A916A815120800120A6EE47B64FAF9F87D
:100DA800120BBF751D027D087F01121120E511FB92
:0C0DB8007A00751D037D047F02021120EB
:100E1C001212C38F12E512604AB40118E4FFFE7D72
:100E2C00FA7C42AB10AA0FA90EA80D1209A66002FB
:100E3C0050020511E512B40218E4FFFE7DFA7C4263
:100E4C00AB10AA0FA90EA80D1209A660025002152C
:100E5C0011E512B403020514E512B40406E514609E
:040E6C000215142235
:100C5F0012126A7FE87E03121232E4FF120FD88F4E
:100C6F0011E511D3947D400375111812124712111B
:100C7F00D91211C27BFF7A1179AA7D017F0112105F
:100C8F00817BFF7A1179AD7D017F021210817BFF8D
:100C9F007A1179B17D097F02121081120D18120E8F
:100CAF001C531403E5147002F50CE514B40103751D
:100CBF000C23E514B40203750C41E514B40303755A
:100CCF000C58E514FB7A00751D017D0F7F02121180
:100CDF0020AC11E4120A3AAB10AA0FA90EA80D12FC
:100CEF0009A6601640147BFF7A1179B87D0D7F013C
:100CFF00121081121176051480A17BFF7A1179BD34
:090D0F007D0D7F0112108180921C
:10110200C2AFD2B7C2B77FF7DFFED2B77F20DFFE12
:0D111200A2B7E433FE7FF7DFFED2AFAF06D9
:01111F0022AD
:10121C00C2AFC2B77E04DEFEEF24FF92B77E18DEAB
:05122C00FED2B7D2AFB5
:01123100229A
:10115A00C2AFC2B77F02DFFED2B77F02DFFEA2B7FD
:0B116A00E433FE7F18DFFED2AFAF06BB
:011175002257
:02119100AD07A8
:10119300E4FC7401A804088002C333D8FC5DFF1289
:0611A300121C0CBC08EC5C
:0111A9002223
:10113D00E4FDFC12115AEF600D7401A80408800241
:0C114D00C333D8FC42050CBC08E9AF0518
:011159002273
:1011C2005389F0438901758A9C758CFFC28DD28C3C
:0711D200D2A9D2AFC2B9227D
:1011D9005389F0438910758B9C758DFFC28FD28E10
:0711E900D2ABD2AFD2B92254
:10080000EC4D6011E8497017ED33EC3304600DE4F2
:10081000FCFFFEFD22E933E8330470F8020ADA1225
:100820000AA558046009E4CC248150062850090226
:100830000AE4284003020AE1C0E0EB4A7044B980B0
:1008400006D0E0FB020AD0EF4E701CBD8008EBFF23
:10085000EAFEE9FD80EBE98DF0A4FEE5F00208E98F
:10086000E9CDF9EAFEEBFFEF89F0A4FCE5F0CE89D3
:10087000F0A42EFFE435F0CD89F0A42DFEE435F090
:100880008067EF4E7005BD80D780C3EF8BF0A4ACBE
:10089000F0EE8BF0A42CFCE435F0F8EF8AF0A42CF9
:1008A000E5F038FCE433CB8DF0A42CFCE5F03BF80C
:1008B000EE8AF0A42CFCE5F038F8E433CF89F0A4FC
:1008C0002CFCE5F038CF3400CE89F0A42FFFE5F002
:1008D0003EFEE433C98DF0A42EFEE5F039CD8AF05A
:1008E000A42FFFE5F03EFEE43DFD33D0E0FB5007D2
:1008F0000BBB000F020AE4EC2CFCEF33FFEE33FEDF
:06090000ED33FD020ABC0C
:10090600020AE4EC5D046005E859047003020ADAA1
:10091600120AA5580460F6EC4860F2EC7004FDFE7D
:10092600FF22C860DB2481C85009C39860025006C4
:10093600020AE19850CAF582E9294B4A7005AB8252
:10094600020AD075F0007C1A7880C3EF9BEE9AED10
:1009560099400DC3EF9BFFEE9AFEED99FDE842F03C
:10096600DC23ACF0D0E0FFD0E0FED0E0FDAB82208F
:10097600E7101BEB60BAEC2CFCEF33FFEE33FEED19
:1009860033FD020ABCE803F830E705C0F075F00055
:10099600EF2FFFEE33FEED33FD40B830E7C280AAFD
:1009A60074F8CC6480CCC86480C8F58204604FC3F8
:1009B600EB9FF5F0EA9E42F0E99D42F0E89C45F097
:1009C600603C501DE5825FFFE582D313CB5BCBF421
:1009D6002B5582FB50280ABA002409B9002008804A
:1009E6001DE5825BFBE582D313CF5FCFF4C3132FE4
:1009F6005582FF50090EBE00050DBD00010CC3EB6C
:100A06009FF5F0EA9E42F0E99D42F0E89C45F060D1
:090A160007CC4820E701B3EC22F3
:100A1F00ED33EC33600A047003BD8004ECB2E7FCE5
:010A2F0022A4
:100A300075F020800E75F010800575F0087D007E41
:100A4000007F003392D530D503120C51EC334010A7
:100A5000EF33FFEE33FEED33FDEC33FCD5F0ED224A
:0E0A6000E5F0247EA2D513CC92E7CDCEFF2286
:100A6E00EDD2E7CD33EC3392D524814006E4FFFE80
:100A7E00FDFC22FCE4CFCECDCC24E0501174FF80DF
:100A8E00EDC3CC13CCCD13CDCE13CECF13CF04707C
:070A9E00F030D5DE020C511F
:100AA500E9D2E7C933E833F892D5EDD2E7CD33EC97
:070AB50033FC5002B2D52210
:100ABC00EC30E7100FBF000C0EBE00080DBD00049B
:100ACC000BEB6014A2D5EB13FCED92E7FD2274FF47
:100ADC00FCFDFEFF22E480F8A2D574FF13FC7D80A0
:030AEC00E480EFB4
:0300000002128366
:0C128300787FE4F6D8FD758138020C5F1E
:100AEF00BB010CE58229F582E5833AF583E02250BC
:100AFF0006E92582F8E622BBFE06E92582F8E22206
:0D0B0F00E58229F582E5833AF583E493221F
:100B1C00EF8DF0A4A8F0CF8CF0A428CE8DF0A42EED
:020B2C00FE22A7
:100B2E00BC000BBE0029EF8DF084FFADF022E4CCAB
:100B3E00F875F008EF2FFFEE33FEEC33FCEE9DEC74
:100B4E00984005FCEE9DFE0FD5F0E9E4CEFD22EDBA
:100B5E00F8F5F0EE8420D21CFEADF075F008EF2F04
:100B6E00FFED33FD4007985006D5F0F222C398FDF5
:050B7E000FD5F0EA2292
:100B830075F008758200EF2FFFEE33FECD33CDCC29
:100B930033CCC58233C5829BED9AEC99E5829840AC
:100BA3000CF582EE9BFEED9AFDEC99FC0FD5F0D689
:100BB300E4CEFBE4CDFAE4CCF9A88222B800C1B9B3
:100BC3000059BA002DEC8BF084CFCECDFCE5F0CBF1
:100BD300F97818EF2FFFEE33FEED33FDEC33FCEB2A
:100BE30033FB10D703994004EB99FB0FD8E5E4F9E5
:100BF300FA227818EF2FFFEE33FEED33FDEC33FCD2
:100C0300C933C910D7059BE99A4007EC9BFCE99AC5
:100C1300F90FD8E0E4C9FAE4CCFB2275F010EF2F0A
:100C2300FFEE33FEED33FDCC33CCC833C810D7070A
:100C33009BEC9AE899400AED9BFDEC9AFCE899F845
:0E0C43000FD5F0DAE4CDFBE4CCFAE4C8F922D8
:0E0C5100C3E49FFFE49EFEE49DFDE49CFC22B4
:00000001FF
